:1000000019C020C01FC01EC01DC01CC01BC01AC00C
:1000100019C018C017C016C015C014C013C012C034
:1000200011C010C00FC00EC00DC00CC00BC00AC064
:1000300009C008C011241FBECFEFD4E0DEBFCDBF82
:1000400032D04EC0DDCFCF93DF9300D000D000D0B0
:10005000CDB7DEB79E838D831A82198213C01C82AE
:100060001B8206C000008B819C8101969C838B8340
:100070008B819C81833E9105ACF389819A810196A5
:100080009A83898329813A818D819E812817390736
:1000900034F3000026960FB6F894DEBF0FBECDBF36
:1000A000DF91CF910895CF93DF93CDB7DEB78AE28A
:1000B00090E02CEFFC0120838BE290E0FC011082A9
:1000C0008BE290E02FEFFC01208384E690E0BBDF21
:1000D0008BE290E0FC01108284E690E0B4DFF0CF88
:0400E000F894FFCFC2
:00000001FF
