:1000000019C020C01FC01EC01DC01CC01BC01AC00C
:1000100019C018C017C016C015C014C013C012C034
:1000200011C010C00FC00EC00DC00CC00BC00AC064
:1000300009C008C011241FBECFEFD2E0DEBFCDBF84
:1000400013D01EC0DDCF40E050E0481759075CF4E4
:1000500020E036E000002150310921153105D1F7AB
:100060004F5F5F4FF2CF08958FEF8AB91BB8589A50
:1000700088EE93E0E8DF589888EE93E0E4DFF7CF6E
:04008000F894FFCF22
:00000001FF
