:1000000019C020C01FC01EC01DC01CC01BC01AC00C
:1000100019C018C017C016C015C014C013C012C034
:1000200011C010C00FC00EC00DC00CC00BC00AC064
:1000300009C008C011241FBECFEFD4E0DEBFCDBF82
:1000400067D0F9C0DDCFCF93DF9300D000D000D0D0
:10005000CDB7DEB79E838D831A82198213C01C82AE
:100060001B8206C000008B819C8101969C838B8340
:100070008B819C81883C9105ACF389819A810196A2
:100080009A83898329813A818D819E812817390736
:1000900034F3000026960FB6F894DEBF0FBECDBF36
:1000A000DF91CF910895CF93DF9300D0CDB7DEB726
:1000B0001A821982000086E290E0FC018081882F7C
:1000C00090E080729927892BB1F31A82198212C0AD
:1000D00086E290E0FC018081882F90E08072992771
:1000E000892B71F081E090E0AEDF89819A810196E1
:1000F0009A83898389819A818F3F91054CF301C04E
:10010000000089819A810F900F90DF91CF9108951F
:10011000CF93DF93CDB7DEB728970FB6F894DEBF45
:100120000FBECDBF1A8219821C821B8283E090E031
:100130009E838D8318861F8287E290E0FC011082E7
:1001400088E290E02FEFFC0120838AE290E02CEF20
:10015000FC0120838BE290E0FC01108284E290E0BD
:100160002FEFFC01208385E290E0FC0110829BDFF1
:1001700098878F838D819E810397A4F58F819885C1
:10018000C097F4F08F819885C597D4F48B819C81BA
:100190000197B1F48D819E819C012F5F3F4F3E837B
:1001A0002D8321E030E0A90102C0440F551F8A953C
:1001B000E2F7CA0129813A81822B932B9A838983A2
:1001C0008F819885479714F18F8198854C97F4F427
:1001D0008B819C810197D1F48D819E8101969E83B4
:1001E0008D8314C08B819C81019781F429818BE2DE
:1001F00090E0220F220FFC0120831C821B8284E6E8
:1002000090E021DF8BE290E0FC0110828F819885E5
:10021000823691050CF4ABCF8F8198858736910596
:100220000CF0A5CF81E090E09C838B831E821D8221
:0A0230001A8219829CCFF894FFCFC8
:00000001FF
