:1000000019C020C01FC01EC01DC01CC01BC01AC00C
:1000100019C018C017C016C015C014C013C012C034
:1000200011C010C00FC00EC00DC00CC00BC00AC064
:1000300009C008C011241FBECFEFD2E0DEBFCDBF84
:1000400032D0D0C0DDCFCF93DF9300D000D000D02E
:10005000CDB7DEB79E838D831A82198213C01C82AE
:100060001B8206C000008B819C8101969C838B8340
:100070008B819C8181159640ACF389819A81019690
:100080009A83898329813A818D819E812817390736
:1000900034F3000026960FB6F894DEBF0FBECDBF36
:1000A000DF91CF910895CF93DF93CDB7DEB784E290
:1000B00090E02FEFFC01208387E290E0FC011082AA
:1000C00085E290E0FC01108285E290E0FC01208155
:1000D00085E290E02062FC01208385E290E0FC0153
:1000E000208185E290E02061FC01208385E290E0A0
:1000F000FC01208185E290E02B7FFC01208386E2D9
:1001000090E0FC018081882F90E084709927892BF2
:10011000E1F085E290E0FC01208185E290E0206240
:10012000FC01208385E290E0FC01208185E290E0E3
:100130002F7EFC01208385E290E0FC01208185E296
:1001400090E02460FC012083DACF86E290E0FC019D
:100150008081882F90E082709927892BE1F085E2D9
:1001600090E0FC01208185E290E02061FC01208389
:1001700085E290E0FC01208185E290E02F7DFC018A
:10018000208385E290E0FC01208185E290E02460FC
:10019000FC012083B4CF86E290E0FC018081882FAF
:1001A00090E081709927892B09F4A9CF85E290E02E
:1001B000FC01208185E290E02062FC01208385E241
:1001C00090E0FC01208185E290E02061FC01208329
:1001D00085E290E0FC01208185E290E02B7FFC012C
:0801E00020838DCFF894FFCFBE
:00000001FF
