:1000000009C00EC00DC00CC00BC00AC009C008C09A
:1000100007C006C011241FBECFE9CDBFC2D0D3C0D8
:10002000EFCFCF93DF93CDB7DD27C650CDBF9E83F3
:100030008D831A82198213C01C821B8206C00000A5
:100040008B819C8101969C838B838B819C81833ED9
:100050009105ACF389819A8101969A8389832981DC
:100060003A818D819E812817390734F30000CA5FD9
:10007000CDBFDF91CF910895CF93DF93CDB7DD272B
:1000800088E390E0FC01208188E390E02160FC019E
:10009000208385E090E0C5DF88E390E0FC012081CB
:1000A00088E390E02E7FFC01208385E090E0B9DFBB
:1000B00088E390E0FC01208188E390E02160FC016E
:1000C000208384E690E0ADDF88E390E0FC012081AE
:1000D00088E390E02E7FFC01208388E290E0A1DF9E
:1000E0000000DF91CF910895CF93DF93CDB7DD2747
:1000F00088E390E0FC01208188E390E02160FC012E
:10010000208389E190E08DDF88E390E0FC0120818D
:1001100088E390E02E7FFC01208388E290E081DF7D
:100120000000DF91CF910895CF93DF93CDB7DD2706
:1001300088E390E0FC01208188E390E02160FC01ED
:10014000208382E390E06DDF88E390E0FC01208172
:1001500088E390E02E7FFC01208388E290E061DF5D
:100160000000DF91CF910895CF93DF93CDB7DD27C6
:1001700088E390E0FC01208188E390E02160FC01AD
:10018000208388E390E0FC01208188E390E02E7FCB
:10019000FC01208388EC90E044DF0000DF91CF91E8
:1001A0000895CF93DF93CDB7DD2787E390E02FEF5E
:1001B000FC01208388E390E0FC0110825DDF94DF86
:0A01C000B3DFB2DFFBCFF894FFCFEE
:00000001FF
